{
  "_format": "hh-sol-artifact-1",
  "contractName": "UniqueFrontendIntegrationContract",
  "sourceName": "contracts/bankfrontend.sol",
  "abi": [
    {
      "inputs": [
        {
          "internalType": "uint256",
          "name": "initialBalance",
          "type": "uint256"
        }
      ],
      "stateMutability": "nonpayable",
      "type": "constructor"
    },
    {
      "inputs": [
        {
          "internalType": "uint256",
          "name": "balance",
          "type": "uint256"
        },
        {
          "internalType": "uint256",
          "name": "withdrawalAmount",
          "type": "uint256"
        }
      ],
      "name": "InsufficientBalance",
      "type": "error"
    },
    {
      "anonymous": false,
      "inputs": [
        {
          "indexed": false,
          "internalType": "address",
          "name": "walletAddress",
          "type": "address"
        }
      ],
      "name": "AddressDisplayed",
      "type": "event"
    },
    {
      "anonymous": false,
      "inputs": [
        {
          "indexed": false,
          "internalType": "uint256",
          "name": "depositValue",
          "type": "uint256"
        },
        {
          "indexed": false,
          "internalType": "uint256",
          "name": "updatedBalance",
          "type": "uint256"
        }
      ],
      "name": "FundsDeposited",
      "type": "event"
    },
    {
      "anonymous": false,
      "inputs": [
        {
          "indexed": false,
          "internalType": "uint256",
          "name": "withdrawalValue",
          "type": "uint256"
        },
        {
          "indexed": false,
          "internalType": "uint256",
          "name": "updatedBalance",
          "type": "uint256"
        }
      ],
      "name": "FundsWithdrawn",
      "type": "event"
    },
    {
      "inputs": [],
      "name": "balance",
      "outputs": [
        {
          "internalType": "uint256",
          "name": "",
          "type": "uint256"
        }
      ],
      "stateMutability": "view",
      "type": "function"
    },
    {
      "inputs": [
        {
          "internalType": "uint256",
          "name": "depositValue",
          "type": "uint256"
        }
      ],
      "name": "depositFunds",
      "outputs": [],
      "stateMutability": "payable",
      "type": "function"
    },
    {
      "inputs": [],
      "name": "displayAddress",
      "outputs": [],
      "stateMutability": "payable",
      "type": "function"
    },
    {
      "inputs": [],
      "name": "getBalance",
      "outputs": [
        {
          "internalType": "uint256",
          "name": "",
          "type": "uint256"
        }
      ],
      "stateMutability": "view",
      "type": "function"
    },
    {
      "inputs": [],
      "name": "getTransactionCount",
      "outputs": [
        {
          "internalType": "uint256",
          "name": "",
          "type": "uint256"
        }
      ],
      "stateMutability": "view",
      "type": "function"
    },
    {
      "inputs": [
        {
          "internalType": "uint256",
          "name": "index",
          "type": "uint256"
        }
      ],
      "name": "getTransactionDetails",
      "outputs": [
        {
          "internalType": "uint256",
          "name": "timestamp",
          "type": "uint256"
        },
        {
          "internalType": "address",
          "name": "userAddress",
          "type": "address"
        },
        {
          "internalType": "uint256",
          "name": "amount",
          "type": "uint256"
        },
        {
          "internalType": "string",
          "name": "transactionTypeName",
          "type": "string"
        }
      ],
      "stateMutability": "view",
      "type": "function"
    },
    {
      "inputs": [
        {
          "internalType": "uint256",
          "name": "",
          "type": "uint256"
        }
      ],
      "name": "transactionHistory",
      "outputs": [
        {
          "internalType": "uint256",
          "name": "timestamp",
          "type": "uint256"
        },
        {
          "internalType": "address",
          "name": "userAddress",
          "type": "address"
        },
        {
          "internalType": "uint256",
          "name": "amount",
          "type": "uint256"
        },
        {
          "internalType": "enum UniqueFrontendIntegrationContract.TransactionType",
          "name": "transactionType",
          "type": "uint8"
        }
      ],
      "stateMutability": "view",
      "type": "function"
    },
    {
      "inputs": [],
      "name": "walletAddress",
      "outputs": [
        {
          "internalType": "address payable",
          "name": "",
          "type": "address"
        }
      ],
      "stateMutability": "view",
      "type": "function"
    },
    {
      "inputs": [
        {
          "internalType": "uint256",
          "name": "withdrawalValue",
          "type": "uint256"
        }
      ],
      "name": "withdrawFunds",
      "outputs": [],
      "stateMutability": "payable",
      "type": "function"
    }
  ],
  "bytecode": "0x608060405234801561001057600080fd5b50604051610cc1380380610cc183398181016040528101906100329190610094565b80600181905550336000806101000a81548173ffffffffffffffffffffffffffffffffffffffff021916908373ffffffffffffffffffffffffffffffffffffffff160217905550506100e7565b60008151905061008e816100d0565b92915050565b6000602082840312156100aa576100a96100cb565b5b60006100b88482850161007f565b91505092915050565b6000819050919050565b600080fd5b6100d9816100c1565b81146100e457600080fd5b50565b610bcb806100f66000396000f3fe6080604052600436106100865760003560e01c80632e7700f0116100595780632e7700f0146101525780633b76594d1461017d5780634bc848e8146101995780636ad5b3ea146101a3578063b69ef8a8146101ce57610086565b80630fa683d31461008b57806312065fe0146100cb578063155dd5ee146100f6578063243e7a8714610112575b600080fd5b34801561009757600080fd5b506100b260048036038101906100ad919061071d565b6101f9565b6040516100c294939291906108a7565b60405180910390f35b3480156100d757600080fd5b506100e0610360565b6040516100ed9190610847565b60405180910390f35b610110600480360381019061010b919061071d565b61036a565b005b34801561011e57600080fd5b506101396004803603810190610134919061071d565b610417565b6040516101499493929190610862565b60405180910390f35b34801561015e57600080fd5b50610167610484565b6040516101749190610847565b60405180910390f35b6101976004803603810190610192919061071d565b610491565b005b6101a16104f3565b005b3480156101af57600080fd5b506101b861054c565b6040516101c5919061080c565b60405180910390f35b3480156101da57600080fd5b506101e3610570565b6040516101f09190610847565b60405180910390f35b600080600060606002805490508510610247576040517f08c379a000000000000000000000000000000000000000000000000000000000815260040161023e90610827565b60405180910390fd5b60006002868154811061025d5761025c610afc565b5b90600052602060002090600402019050600080600181111561028257610281610acd565b5b8260030160009054906101000a900460ff1660018111156102a6576102a5610acd565b5b146102e6576040518060400160405280600a81526020017f5769746864726177616c0000000000000000000000000000000000000000000081525061031d565b6040518060400160405280600781526020017f4465706f736974000000000000000000000000000000000000000000000000008152505b905081600001548260010160009054906101000a900473ffffffffffffffffffffffffffffffffffffffff16836002015483955095509550955050509193509193565b6000600154905090565b8060015410156103b557600154816040517fcf4791810000000000000000000000000000000000000000000000000000000081526004016103ac9291906108f3565b60405180910390fd5b80600160008282546103c7919061098e565b925050819055507fd66662c0ded9e58fd31d5e44944bcfd07ffc15e6927ecc1382e7941cb7bd24c4816001546040516104019291906108f3565b60405180910390a1610414816001610576565b50565b6002818154811061042757600080fd5b90600052602060002090600402016000915090508060000154908060010160009054906101000a900473ffffffffffffffffffffffffffffffffffffffff16908060020154908060030160009054906101000a900460ff16905084565b6000600280549050905090565b80600160008282546104a39190610938565b925050819055507f26679fa1f3868c950e9362f1106cf73f3318de0280e0411a3c68e4b463eadd4f816001546040516104dd9291906108f3565b60405180910390a16104f0816000610576565b50565b7fd28e6b679dc1cf6c4e02cd6bf70161b74cc35260d1215836d237820d2f3e103b60008054906101000a900473ffffffffffffffffffffffffffffffffffffffff1660405161054291906107f1565b60405180910390a1565b60008054906101000a900473ffffffffffffffffffffffffffffffffffffffff1681565b60015481565b61057e6106b8565b4281600001818152505033816020019073ffffffffffffffffffffffffffffffffffffffff16908173ffffffffffffffffffffffffffffffffffffffff16815250508281604001818152505081816060019060018111156105e2576105e1610acd565b5b908160018111156105f6576105f5610acd565b5b8152505060028190806001815401808255809150506001900390600052602060002090600402016000909190919091506000820151816000015560208201518160010160006101000a81548173ffffffffffffffffffffffffffffffffffffffff021916908373ffffffffffffffffffffffffffffffffffffffff1602179055506040820151816002015560608201518160030160006101000a81548160ff021916908360018111156106ac576106ab610acd565b5b02179055505050505050565b604051806080016040528060008152602001600073ffffffffffffffffffffffffffffffffffffffff168152602001600081526020016000600181111561070257610701610acd565b5b81525090565b60008135905061071781610b7e565b92915050565b60006020828403121561073357610732610b2b565b5b600061074184828501610708565b91505092915050565b61075381610a23565b82525050565b610762816109d4565b82525050565b610771816109c2565b82525050565b61078081610a35565b82525050565b60006107918261091c565b61079b8185610927565b93506107ab818560208601610a6b565b6107b481610b30565b840191505092915050565b60006107cc600d83610927565b91506107d782610b41565b602082019050919050565b6107eb81610a19565b82525050565b6000602082019050610806600083018461074a565b92915050565b60006020820190506108216000830184610759565b92915050565b60006020820190508181036000830152610840816107bf565b9050919050565b600060208201905061085c60008301846107e2565b92915050565b600060808201905061087760008301876107e2565b6108846020830186610768565b61089160408301856107e2565b61089e6060830184610777565b95945050505050565b60006080820190506108bc60008301876107e2565b6108c96020830186610768565b6108d660408301856107e2565b81810360608301526108e88184610786565b905095945050505050565b600060408201905061090860008301856107e2565b61091560208301846107e2565b9392505050565b600081519050919050565b600082825260208201905092915050565b600061094382610a19565b915061094e83610a19565b9250827fffffffffffffffffffffffffffffffffffffffffffffffffffffffffffffffff0382111561098357610982610a9e565b5b828201905092915050565b600061099982610a19565b91506109a483610a19565b9250828210156109b7576109b6610a9e565b5b828203905092915050565b60006109cd826109f9565b9050919050565b60006109df826109f9565b9050919050565b60008190506109f482610b6a565b919050565b600073ffffffffffffffffffffffffffffffffffffffff82169050919050565b6000819050919050565b6000610a2e82610a47565b9050919050565b6000610a40826109e6565b9050919050565b6000610a5282610a59565b9050919050565b6000610a64826109f9565b9050919050565b60005b83811015610a89578082015181840152602081019050610a6e565b83811115610a98576000848401525b50505050565b7f4e487b7100000000000000000000000000000000000000000000000000000000600052601160045260246000fd5b7f4e487b7100000000000000000000000000000000000000000000000000000000600052602160045260246000fd5b7f4e487b7100000000000000000000000000000000000000000000000000000000600052603260045260246000fd5b600080fd5b6000601f19601f8301169050919050565b7f496e76616c696420696e64657800000000000000000000000000000000000000600082015250565b60028110610b7b57610b7a610acd565b5b50565b610b8781610a19565b8114610b9257600080fd5b5056fea2646970667358221220c6693aede0315f521efd3dca74d22218b1474236ceb6020ca6b38de0d3708f2164736f6c63430008070033",
  "linkReferences": {},
  "deployedLinkReferences": {}
}